:030000000202C534
:0C02C500787FE4F6D8FD75812002030C60
:1003DE003F065B4F666D7D077F6F00FEFDFBF7EFFF
:0303EE00DFBF7FEF
:1003A900080A0A0A0A0A0A080808C1000214000011
:0A03B9000212000001080001090013
:10035100D2A0E4F580C2A0D2A0740A2508F8E690E4
:1003610003DE93F580C2A0D2A1E5089003E993F5DD
:0D03710080C2A10508E508B40803E4F50802
:01037E00225C
:1003C400D2A20000000000000000000000000000B5
:0A03D40000000000000000C2A22299
:1003F100438901758CF8758A30D2AFD2A9D28C228B
:09040100438910E4F58DF58B220E
:03000B0002037F6E
:0D037F00C0E0C083C082C0D075D000C000B7
:10038C00758CF8758A301203510509E509B43202EF
:02039C00D2008D
:0B039E00D000D0D0D082D083D0E0325D
:100236001204011203F13000FDC2001203C430A300
:10024600FDD28E30A303308FFAC28E308F0AC28F52
:10025600751403751578802CAF8DEFFEAD8BEDFF11
:10026600E4AC061201197B967A43798B783C12002E
:100276000E1201528E148F15C3741D9515F513E4D5
:100286009514F512E4F58BF58DAE12AF13FC7D6473
:100296001201D38F0FAE12AF137C007D641201D30F
:1002A6007E007F0ACFCDCFCECCCE1201D38F10AE3B
:0F02B60012AF137C007D0A1201D38D1102023C9E
:10000E00EC4D6011E8497017ED33EC3304600DE4EC
:10001E00FCFFFEFD22E933E8330470F80201BE1244
:10002E00018958046009E4CC248150062850090245
:10003E0001C82840030201C5C0E0EB4A7044B980F4
:10004E0006D0E0FB0201B4EF4E701CBD8008EBFF42
:10005E00EAFEE9FD80EBE98DF0A4FEE5F00200F783
:10006E00E9CDF9EAFEEBFFEF89F0A4FCE5F0CE89CD
:10007E00F0A42EFFE435F0CD89F0A42DFEE435F08A
:10008E008067EF4E7005BD80D780C3EF8BF0A4ACB8
:10009E00F0EE8BF0A42CFCE435F0F8EF8AF0A42CF3
:1000AE00E5F038FCE433CB8DF0A42CFCE5F03BF806
:1000BE00EE8AF0A42CFCE5F038F8E433CF89F0A4F6
:1000CE002CFCE5F038CF3400CE89F0A42FFFE5F0FC
:1000DE003EFEE433C98DF0A42EFEE5F039CD8AF054
:1000EE00A42FFFE5F03EFEE43DFD33D0E0FB5007CC
:1000FE000BBB000F0201C8EC2CFCEF33FFEE33FEFE
:06010E00ED33FD0201A02B
:1001140075F020800E75F010800575F0087D007E66
:10012400007F003392D530D503120228EC334010FF
:10013400EF33FFEE33FEED33FDEC33FCD5F0ED226F
:0E014400E5F0247EA2D513CC92E7CDCEFF22AB
:10015200EDD2E7CD33EC3392D524814006E4FFFEA5
:10016200FDFC22FCE4CFCECDCC24E0501174FF8004
:10017200EDC3CC13CCCD13CDCE13CECF13CF0470A1
:07018200F030D5DE02022877
:10018900E9D2E7C933E833F892D5EDD2E7CD33ECBC
:0701990033FC5002B2D52235
:1001A000EC30E7100FBF000C0EBE00080DBD0004C0
:1001B0000BEB6014A2D5EB13FCED92E7FD2274FF6C
:1001C000FCFDFEFF22E480F8A2D574FF13FC7D80C5
:0301D000E480EFD9
:1002D100020236E493A3F8E493A34003F68001F20B
:1002E10008DFF48029E493A3F85407240CC8C3332E
:1002F100C4540F4420C8834004F456800146F6DFFD
:10030100E4800B01020408102040809003A9E47EE0
:10031100019360BCA3FF543F30E509541FFEE493F1
:10032100A360010ECF54C025E060A840B8E493A3B8
:10033100FAE493A3F8E493A3C8C582C8CAC583CAE3
:10034100F0A3C8C582C8CAC583CADFE9DEE780BE9B
:0103C3000039
:1001D300BC000BBE0029EF8DF084FFADF022E4CC10
:1001E300F875F008EF2FFFEE33FEEC33FCEE9DECD9
:1001F300984005FCEE9DFE0FD5F0E9E4CEFD22ED1F
:10020300F8F5F0EE8420D21CFEADF075F008EF2F68
:10021300FFED33FD4007985006D5F0F222C398FD59
:050223000FD5F0EA22F6
:0E022800C3E49FFFE49EFEE49DFDE49CFC22E7
:00000001FF
