:10040A00020A000002080000040C00000000C100FB
:10034F00AF8CEFFEAD8A7C00E42DF50BEC3EF50A89
:10035F00E4F58CF58AAC0AAD0B1202327B297A5C7C
:10036F0079EF783F12000EE4FBFA79C87842120158
:10037F00178F0F8E0E8D0D8C0CE4FFFE7DF07C41E0
:10038F00AB0FAA0EA90DA80C1201B45004E4F5800E
:05039F00227580FF2221
:1003D6007C64EF4E60131CEC60087D0A1DED60F630
:0903E60080FAEF1F70EC1E80E9A3
:0103EF0022EB
:03000B00020003ED
:03000300D20032F6
:1003F000D292000000000000000000000000000099
:0A04000000000000000000C292227C
:1003A400758921759850758DFD758BFDE4F58CF577
:1003B4008AD28CD2A9D299D2AF1203F03091FDD255
:1003C4008C2091FDC28C12034F7F0A7E001203D64B
:0203D40080E7C0
:10000E00EC4D6011E8497017ED33EC3304600DE4EC
:10001E00FCFFFEFD22E933E8330470F80202A01261
:10002E00026B58046009E4CC248150062850090262
:10003E0002AA2840030202A7C0E0EB4A7044B9802E
:10004E0006D0E0FB020296EF4E701CBD8008EBFF5F
:10005E00EAFEE9FD80EBE98DF0A4FEE5F00200F783
:10006E00E9CDF9EAFEEBFFEF89F0A4FCE5F0CE89CD
:10007E00F0A42EFFE435F0CD89F0A42DFEE435F08A
:10008E008067EF4E7005BD80D780C3EF8BF0A4ACB8
:10009E00F0EE8BF0A42CFCE435F0F8EF8AF0A42CF3
:1000AE00E5F038FCE433CB8DF0A42CFCE5F03BF806
:1000BE00EE8AF0A42CFCE5F038F8E433CF89F0A4F6
:1000CE002CFCE5F038CF3400CE89F0A42FFFE5F0FC
:1000DE003EFEE433C98DF0A42EFEE5F039CD8AF054
:1000EE00A42FFFE5F03EFEE43DFD33D0E0FB5007CC
:1000FE000BBB000F0202AAEC2CFCEF33FFEE33FE1B
:06010E00ED33FD02028248
:100114000202AAEC5D046005E8590470030202A01F
:1001240012026B580460F6EC4860F2EC7004FDFEB9
:10013400FF22C860DB2481C85009C39860025006BE
:100144000202A79850CAF582E9294B4A7005AB828E
:1001540002029675F0007C1A7880C3EF9BEE9AED4C
:1001640099400DC3EF9BFFEE9AFEED99FDE842F036
:10017400DC23ACF0D0E0FFD0E0FED0E0FDAB822089
:10018400E7101BEB60BAEC2CFCEF33FFEE33FEED13
:1001940033FD020282E803F830E705C0F075F00091
:1001A400EF2FFFEE33FEED33FD40B830E7C280AAF7
:1001B40074F8CC6480CCC86480C8F58204604FC3F2
:1001C400EB9FF5F0EA9E42F0E99D42F0E89C45F091
:1001D400603C501DE5825FFFE582D313CB5BCBF41B
:1001E4002B5582FB50280ABA002409B90020088044
:1001F4001DE5825BFBE582D313CF5FCFF4C3132FDE
:100204005582FF50090EBE00050DBD00010CC3EB65
:100214009FF5F0EA9E42F0E99D42F0E89C45F060CB
:0902240007CC4820E701B3EC22ED
:10022D0075F020800E75F010800575F0087D007E4C
:10023D00007F003392D530D5031202B5EC33401058
:10024D00EF33FFEE33FEED33FDEC33FCD5F0ED2255
:0E025D00E5F0247EA2D513CC92E7CDCEFF2291
:10026B00E9D2E7C933E833F892D5EDD2E7CD33ECD9
:07027B0033FC5002B2D52252
:10028200EC30E7100FBF000C0EBE00080DBD0004DD
:100292000BEB6014A2D5EB13FCED92E7FD2274FF89
:1002A200FCFDFEFF22E480F8A2D574FF13FC7D80E2
:0302B200E480EFF6
:030000000202C336
:0C02C300787FE4F6D8FD75812002030A64
:0E02B500C3E49FFFE49EFEE49DFDE49CFC225A
:1002CF000203A4E493A3F8E493A34003F68001F29E
:1002DF0008DFF48029E493A3F85407240CC8C33330
:1002EF00C4540F4420C8834004F456800146F6DFFF
:1002FF00E4800B010204081020408090040AE47E81
:10030F00019360BCA3FF543F30E509541FFEE493F3
:10031F00A360010ECF54C025E060A840B8E493A3BA
:10032F00FAE493A3F8E493A3C8C582C8CAC583CAE5
:10033F00F0A3C8C582C8CAC583CADFE9DEE780BE9D
:01041A0000E1
:00000001FF
